{
  "contractName": "ProofOfExistence3",
  "abi": [
    {
      "constant": false,
      "inputs": [
        {
          "name": "document",
          "type": "string"
        }
      ],
      "name": "notarize",
      "outputs": [],
      "payable": false,
      "stateMutability": "nonpayable",
      "type": "function"
    },
    {
      "constant": true,
      "inputs": [
        {
          "name": "document",
          "type": "string"
        }
      ],
      "name": "checkDocument",
      "outputs": [
        {
          "name": "",
          "type": "bool"
        }
      ],
      "payable": false,
      "stateMutability": "view",
      "type": "function"
    }
  ],
  "bytecode": "0x6060604052341561000f57600080fd5b6102778061001e6000396000f30060606040526004361061004c576000357c0100000000000000000000000000000000000000000000000000000000900463ffffffff16806353fb9233146100515780637183616c146100c6575b600080fd5b341561005c57600080fd5b6100ac600480803590602001908201803590602001908080601f01602080910402602001604051908101604052809392919081815260200183838082843782019150505050505091905050610123565b604051808215151515815260200191505060405180910390f35b34156100d157600080fd5b610121600480803590602001908201803590602001908080601f01602080910402602001604051908101604052809392919081815260200183838082843782019150505050505091905050610142565b005b60008061012f8361015c565b905061013a816101e4565b915050919050565b600061014d8261015c565b905061015881610215565b5050565b60006002826040518082805190602001908083835b6020831015156101965780518252602082019150602081019050602083039250610171565b6001836020036101000a0380198251168184511680821785525050505050509050019150506020604051808303816000865af115156101d457600080fd5b5050604051805190509050919050565b6000806000836000191660001916815260200190815260200160002060009054906101000a900460ff169050919050565b6001600080836000191660001916815260200190815260200160002060006101000a81548160ff021916908315150217905550505600a165627a7a7230582089f12d979ee71938b161df972f4ed4d786d380a8bcd4d20db178e8839c851bf80029",
  "source": "pragma solidity ^0.4.4;\n\n// Proof of Existence contract, version 3\ncontract ProofOfExistence3 {\n  mapping (bytes32 => bool) private proofs;\n  // store a proof of existence in the contract state\n  function storeProof(bytes32 proof) private {\n    proofs[proof] = true;\n  }\n  // calculate and store the proof for a document\n  function notarize(string document) public {\n    bytes32 proof = proofFor(document);\n    storeProof(proof);\n  }\n  // helper function to get a document's sha256\n  function proofFor(string document) private pure returns (bytes32) {\n    return sha256(document);\n  }\n  // check if a document has been notarized\n  function checkDocument(string document) public view returns (bool) {\n    bytes32 proof = proofFor(document);\n    return hasProof(proof);\n  }\n  // returns true if proof is stored\n  function hasProof(bytes32 proof) private view returns(bool) {\n    return proofs[proof];\n  }\n}",
  "sourcePath": "F:\\workspace\\dotnet\\ethweb\\contracts\\ProofOfExistance3.sol",
  "compiler": {
    "name": "solc",
    "version": "0.4.21+commit.dfe3193c.Emscripten.clang"
  },
  "schemaVersion": "2.0.0",
  "updatedAt": "2018-04-11T11:19:06.916Z"
}