{
  "contractName": "ProofOfExistence2",
  "abi": [
    {
      "constant": true,
      "inputs": [
        {
          "name": "document",
          "type": "string"
        }
      ],
      "name": "checkDocument",
      "outputs": [
        {
          "name": "",
          "type": "bool"
        }
      ],
      "payable": false,
      "stateMutability": "view",
      "type": "function"
    },
    {
      "constant": false,
      "inputs": [
        {
          "name": "document",
          "type": "string"
        }
      ],
      "name": "notarize",
      "outputs": [],
      "payable": false,
      "stateMutability": "nonpayable",
      "type": "function"
    }
  ],
  "bytecode": "0x6060604052341561000f57600080fd5b6102f38061001e6000396000f30060606040526004361061004c576000357c0100000000000000000000000000000000000000000000000000000000900463ffffffff16806353fb9233146100515780637183616c146100c6575b600080fd5b341561005c57600080fd5b6100ac600480803590602001908201803590602001908080601f01602080910402602001604051908101604052809392919081815260200183838082843782019150505050505091905050610123565b604051808215151515815260200191505060405180910390f35b34156100d157600080fd5b610121600480803590602001908201803590602001908080601f01602080910402602001604051908101604052809392919081815260200183838082843782019150505050505091905050610142565b005b60008061012f8361015c565b905061013a816101e4565b915050919050565b600061014d8261015c565b905061015881610244565b5050565b60006002826040518082805190602001908083835b6020831015156101965780518252602082019150602081019050602083039250610171565b6001836020036101000a0380198251168184511680821785525050505050509050019150506020604051808303816000865af115156101d457600080fd5b5050604051805190509050919050565b600080600090505b60008054905081101561023957826000191660008281548110151561020d57fe5b90600052602060002090015460001916141561022c576001915061023e565b80806001019150506101ec565b600091505b50919050565b600080548060010182816102589190610276565b91600052602060002090016000839091909150906000191690555050565b81548183558181151161029d5781836000526020600020918201910161029c91906102a2565b5b505050565b6102c491905b808211156102c05760008160009055506001016102a8565b5090565b905600a165627a7a72305820333b1515f908c5107ce87392eab31375f84623237b4e09bba5b6ed06fc4049580029",
  "source": "pragma solidity ^0.4.4;\n\n// Proof of Existence contract, version 2\ncontract ProofOfExistence2 {\n  // state\n  bytes32[] private proofs;\n\n// check if a document has been notarized\n  // *read-only function*\n  function checkDocument(string document) public view returns (bool) {\n    bytes32 proof = proofFor(document);\n    return hasProof(proof);\n  }\n\n// calculate and store the proof for a document\n  // *transactional function*\n  function notarize(string document) public {\n    bytes32 proof = proofFor(document);\n    storeProof(proof);\n  }\n  \n  // store a proof of existence in the contract state\n  // *transactional function*\n  function storeProof(bytes32 proof) private {\n    proofs.push(proof);\n  }\n\n// helper function to get a document's sha256\n  // *read-only function*\n  function proofFor(string document) private pure returns (bytes32) {\n    return sha256(document);\n  }\n\n  // returns true if proof is stored\n  // *read-only function*\n  function hasProof(bytes32 proof) private view returns (bool) {\n    for (uint256 i = 0; i < proofs.length; i++) {\n      if (proofs[i] == proof) {\n        return true;\n      }\n    }\n    return false;\n  }\n}",
  "sourcePath": "F:\\workspace\\dotnet\\ethweb\\contracts\\ProofOfExistance2.sol",
  "compiler": {
    "name": "solc",
    "version": "0.4.21+commit.dfe3193c.Emscripten.clang"
  },
  "schemaVersion": "2.0.0",
  "updatedAt": "2018-04-11T11:19:06.907Z"
}