{
  "contractName": "ProofOfExistence",
  "abi": [
    {
      "constant": true,
      "inputs": [],
      "name": "proof",
      "outputs": [
        {
          "name": "",
          "type": "bytes32"
        }
      ],
      "payable": false,
      "stateMutability": "view",
      "type": "function"
    },
    {
      "constant": false,
      "inputs": [
        {
          "name": "document",
          "type": "string"
        }
      ],
      "name": "notarize",
      "outputs": [],
      "payable": false,
      "stateMutability": "nonpayable",
      "type": "function"
    },
    {
      "constant": true,
      "inputs": [
        {
          "name": "document",
          "type": "string"
        }
      ],
      "name": "proofFor",
      "outputs": [
        {
          "name": "",
          "type": "bytes32"
        }
      ],
      "payable": false,
      "stateMutability": "pure",
      "type": "function"
    }
  ],
  "bytecode": "0x6060604052341561000f57600080fd5b6102338061001e6000396000f300606060405260043610610057576000357c0100000000000000000000000000000000000000000000000000000000900463ffffffff1680637183616c1461005c578063f6c1acdf146100b9578063faf924cf14610132575b600080fd5b341561006757600080fd5b6100b7600480803590602001908201803590602001908080601f01602080910402602001604051908101604052809392919081815260200183838082843782019150505050505091905050610163565b005b34156100c457600080fd5b610114600480803590602001908201803590602001908080601f01602080910402602001604051908101604052809392919081815260200183838082843782019150505050505091905050610179565b60405180826000191660001916815260200191505060405180910390f35b341561013d57600080fd5b610145610201565b60405180826000191660001916815260200191505060405180910390f35b61016c81610179565b6000816000191690555050565b60006002826040518082805190602001908083835b6020831015156101b3578051825260208201915060208101905060208303925061018e565b6001836020036101000a0380198251168184511680821785525050505050509050019150506020604051808303816000865af115156101f157600080fd5b5050604051805190509050919050565b600054815600a165627a7a723058201d8509ac3d16d509176584b426a9484257ece81f7b255838ee648d2adaaf30d40029",
  "source": "pragma solidity ^0.4.4;\n\n// Proof of Existence contract, version 1\ncontract ProofOfExistence {\n    // state\n    bytes32 public proof;\n\n    // calculate and store the proof for a document\n    // *transactional function*\n    function notarize(string document) public {\n        proof = proofFor(document);\n    }\n\n    // helper function to get a document's sha256\n    // *read-only function*\n    function proofFor(string document) public pure returns(bytes32) {\n        return sha256(document);\n    }\n}",
  "sourcePath": "F:\\workspace\\dotnet\\ethweb\\contracts\\ProofOfExistance.sol",
  "compiler": {
    "name": "solc",
    "version": "0.4.21+commit.dfe3193c.Emscripten.clang"
  },
  "schemaVersion": "2.0.0",
  "updatedAt": "2018-04-11T11:19:06.918Z"
}